{
  "_format": "hh-sol-artifact-1",
  "contractName": "EncryptedWarriors",
  "sourceName": "contracts/EncryptedWarriors.sol",
  "abi": [
    {
      "inputs": [],
      "stateMutability": "nonpayable",
      "type": "constructor"
    },
    {
      "anonymous": false,
      "inputs": [
        {
          "indexed": true,
          "internalType": "address",
          "name": "attacker",
          "type": "address"
        },
        {
          "indexed": true,
          "internalType": "address",
          "name": "defender",
          "type": "address"
        },
        {
          "indexed": false,
          "internalType": "enum EncryptedWarriors.CombatOutcome",
          "name": "outcome",
          "type": "uint8"
        }
      ],
      "name": "CombatConcluded",
      "type": "event"
    },
    {
      "anonymous": false,
      "inputs": [
        {
          "indexed": true,
          "internalType": "address",
          "name": "attacker",
          "type": "address"
        },
        {
          "indexed": true,
          "internalType": "address",
          "name": "defender",
          "type": "address"
        }
      ],
      "name": "EncryptedCombatResultsStored",
      "type": "event"
    },
    {
      "anonymous": false,
      "inputs": [
        {
          "indexed": true,
          "internalType": "bytes32",
          "name": "code",
          "type": "bytes32"
        },
        {
          "indexed": true,
          "internalType": "address",
          "name": "creator",
          "type": "address"
        }
      ],
      "name": "GameCreated",
      "type": "event"
    },
    {
      "anonymous": false,
      "inputs": [
        {
          "indexed": true,
          "internalType": "bytes32",
          "name": "code",
          "type": "bytes32"
        },
        {
          "indexed": true,
          "internalType": "address",
          "name": "player",
          "type": "address"
        }
      ],
      "name": "PlayerJoined",
      "type": "event"
    },
    {
      "anonymous": false,
      "inputs": [
        {
          "indexed": false,
          "internalType": "enum EncryptedWarriors.CombatOutcome",
          "name": "outcome",
          "type": "uint8"
        }
      ],
      "name": "PublicOutcomeSubmitted",
      "type": "event"
    },
    {
      "anonymous": false,
      "inputs": [
        {
          "indexed": true,
          "internalType": "address",
          "name": "playerAddress",
          "type": "address"
        }
      ],
      "name": "UnitDeployed",
      "type": "event"
    },
    {
      "inputs": [],
      "name": "MAX_PLAYERS",
      "outputs": [
        {
          "internalType": "uint256",
          "name": "",
          "type": "uint256"
        }
      ],
      "stateMutability": "view",
      "type": "function"
    },
    {
      "inputs": [
        {
          "internalType": "address",
          "name": "_attacker",
          "type": "address"
        },
        {
          "internalType": "address",
          "name": "_defender",
          "type": "address"
        }
      ],
      "name": "attack",
      "outputs": [],
      "stateMutability": "nonpayable",
      "type": "function"
    },
    {
      "inputs": [],
      "name": "createGame",
      "outputs": [
        {
          "internalType": "bytes32",
          "name": "",
          "type": "bytes32"
        }
      ],
      "stateMutability": "nonpayable",
      "type": "function"
    },
    {
      "inputs": [
        {
          "internalType": "externalEuint8",
          "name": "_encryptedAttack",
          "type": "bytes32"
        },
        {
          "internalType": "bytes",
          "name": "_attackProof",
          "type": "bytes"
        },
        {
          "internalType": "externalEuint8",
          "name": "_encryptedDefense",
          "type": "bytes32"
        },
        {
          "internalType": "bytes",
          "name": "_defenseProof",
          "type": "bytes"
        }
      ],
      "name": "deployUnit",
      "outputs": [],
      "stateMutability": "nonpayable",
      "type": "function"
    },
    {
      "inputs": [],
      "name": "encryptedAttackerWins",
      "outputs": [
        {
          "internalType": "ebool",
          "name": "",
          "type": "bytes32"
        }
      ],
      "stateMutability": "view",
      "type": "function"
    },
    {
      "inputs": [],
      "name": "encryptedDefenderWins",
      "outputs": [
        {
          "internalType": "ebool",
          "name": "",
          "type": "bytes32"
        }
      ],
      "stateMutability": "view",
      "type": "function"
    },
    {
      "inputs": [],
      "name": "encryptedIsDraw",
      "outputs": [
        {
          "internalType": "ebool",
          "name": "",
          "type": "bytes32"
        }
      ],
      "stateMutability": "view",
      "type": "function"
    },
    {
      "inputs": [
        {
          "internalType": "bytes32",
          "name": "",
          "type": "bytes32"
        }
      ],
      "name": "games",
      "outputs": [
        {
          "internalType": "address",
          "name": "creator",
          "type": "address"
        },
        {
          "internalType": "address",
          "name": "player2",
          "type": "address"
        },
        {
          "internalType": "bool",
          "name": "started",
          "type": "bool"
        }
      ],
      "stateMutability": "view",
      "type": "function"
    },
    {
      "inputs": [],
      "name": "getCombatResult",
      "outputs": [
        {
          "internalType": "enum EncryptedWarriors.CombatOutcome",
          "name": "",
          "type": "uint8"
        }
      ],
      "stateMutability": "view",
      "type": "function"
    },
    {
      "inputs": [],
      "name": "getEncryptedCombatResults",
      "outputs": [
        {
          "internalType": "ebool",
          "name": "attackerWins",
          "type": "bytes32"
        },
        {
          "internalType": "ebool",
          "name": "defenderWins",
          "type": "bytes32"
        },
        {
          "internalType": "ebool",
          "name": "isDraw",
          "type": "bytes32"
        }
      ],
      "stateMutability": "view",
      "type": "function"
    },
    {
      "inputs": [
        {
          "internalType": "bytes32",
          "name": "code",
          "type": "bytes32"
        }
      ],
      "name": "getGame",
      "outputs": [
        {
          "internalType": "address",
          "name": "",
          "type": "address"
        },
        {
          "internalType": "address",
          "name": "",
          "type": "address"
        },
        {
          "internalType": "bool",
          "name": "",
          "type": "bool"
        }
      ],
      "stateMutability": "view",
      "type": "function"
    },
    {
      "inputs": [],
      "name": "getMyEncryptedUnitStats",
      "outputs": [
        {
          "internalType": "euint8",
          "name": "encryptedAttack",
          "type": "bytes32"
        },
        {
          "internalType": "euint8",
          "name": "encryptedDefense",
          "type": "bytes32"
        }
      ],
      "stateMutability": "view",
      "type": "function"
    },
    {
      "inputs": [
        {
          "internalType": "bytes32",
          "name": "code",
          "type": "bytes32"
        }
      ],
      "name": "joinGame",
      "outputs": [],
      "stateMutability": "nonpayable",
      "type": "function"
    },
    {
      "inputs": [],
      "name": "lastCombatOutcome",
      "outputs": [
        {
          "internalType": "enum EncryptedWarriors.CombatOutcome",
          "name": "",
          "type": "uint8"
        }
      ],
      "stateMutability": "view",
      "type": "function"
    },
    {
      "inputs": [],
      "name": "owner",
      "outputs": [
        {
          "internalType": "address",
          "name": "",
          "type": "address"
        }
      ],
      "stateMutability": "view",
      "type": "function"
    },
    {
      "inputs": [],
      "name": "player1",
      "outputs": [
        {
          "internalType": "address",
          "name": "",
          "type": "address"
        }
      ],
      "stateMutability": "view",
      "type": "function"
    },
    {
      "inputs": [],
      "name": "player2",
      "outputs": [
        {
          "internalType": "address",
          "name": "",
          "type": "address"
        }
      ],
      "stateMutability": "view",
      "type": "function"
    },
    {
      "inputs": [
        {
          "internalType": "address",
          "name": "",
          "type": "address"
        }
      ],
      "name": "playerGameCode",
      "outputs": [
        {
          "internalType": "bytes32",
          "name": "",
          "type": "bytes32"
        }
      ],
      "stateMutability": "view",
      "type": "function"
    },
    {
      "inputs": [],
      "name": "playersJoined",
      "outputs": [
        {
          "internalType": "uint256",
          "name": "",
          "type": "uint256"
        }
      ],
      "stateMutability": "view",
      "type": "function"
    },
    {
      "inputs": [
        {
          "internalType": "address",
          "name": "",
          "type": "address"
        }
      ],
      "name": "playersWarriors",
      "outputs": [
        {
          "internalType": "euint8",
          "name": "encryptedAttack",
          "type": "bytes32"
        },
        {
          "internalType": "euint8",
          "name": "encryptedDefense",
          "type": "bytes32"
        },
        {
          "internalType": "bool",
          "name": "deployed",
          "type": "bool"
        }
      ],
      "stateMutability": "view",
      "type": "function"
    },
    {
      "inputs": [
        {
          "internalType": "enum EncryptedWarriors.CombatOutcome",
          "name": "_outcome",
          "type": "uint8"
        }
      ],
      "name": "submitCombatOutcome",
      "outputs": [],
      "stateMutability": "nonpayable",
      "type": "function"
    }
  ],
  "bytecode": "0x60806040525f600355348015610013575f80fd5b5061018e6100b2604080516080810182525f808252602082018190529181018290526060810191909152506040805160808101825273687820221192c5b662b25367f70076a37bc79b6c815273848b0066793bcc60346da1f49049357399b8d5956020820152731364cbbf2cdf5032c47d8226a6f6fbd2afcdacac9181019190915273bc91f3dad1a5f19f8390c400196e58073b6a0bc4606082015290565b80517fed8d60e34876f751cc8b014c560745351147d9de11b9347c854e881b128ea60080546001600160a01b03199081166001600160a01b039384161790915560208301517fed8d60e34876f751cc8b014c560745351147d9de11b9347c854e881b128ea6018054831691841691909117905560408301517fed8d60e34876f751cc8b014c560745351147d9de11b9347c854e881b128ea6028054831691841691909117905560608301517fed8d60e34876f751cc8b014c560745351147d9de11b9347c854e881b128ea6038054909216921691909117905550565b7f5ea69329017273582817d320489fbd94f775580e90c092699ca6f3d12fdf7d0080546001600160a01b03191673a02cda4ca3a71d7c46997716f4283aa851c28812179055600880546001600160a01b03191633179055611653806101f25f395ff3fe608060405234801561000f575f80fd5b506004361061016e575f3560e01c80637323d3ae116100d2578063bf47476611610088578063d30895e411610063578063d30895e41461038f578063f579f882146103a2578063fedc6747146103e1575f80fd5b8063bf47476614610321578063d01d3dc414610334578063d2d8274814610341575f80fd5b80638da5cb5b116100b85780638da5cb5b146102e2578063a972f83a146102f5578063afc1564f146102fe575f80fd5b80637323d3ae1461025457806373931bbf1461025d575f80fd5b806359a5f12d1161012757806369cbe8bf1161010d57806369cbe8bf14610225578063709183e5146102395780637255d7291461024c575f80fd5b806359a5f12d146101e75780636785581314610212575f80fd5b806343c986371161015757806343c98637146101a357806343daf5d2146101c05780634411b3eb146101df575f80fd5b806319d58f44146101725780633c48664c1461018e575b5f80fd5b61017b60055481565b6040519081526020015b60405180910390f35b6101a161019c366004611400565b6103ea565b005b6101ab610702565b60408051928352602083019190915201610185565b61017b6101ce366004611431565b600a6020525f908152604090205481565b61017b600281565b6002546101fa906001600160a01b031681565b6040516001600160a01b039091168152602001610185565b6101a161022036600461144a565b610818565b60045460ff165b6040516101859190611483565b6101a16102473660046114e2565b6108e8565b61017b610b40565b61017b60065481565b6102ba61026b36600461155f565b5f90815260096020908152604091829020825160608101845281546001600160a01b03908116808352600190930154908116938201849052600160a01b900460ff161515930183905292909190565b604080516001600160a01b039485168152939092166020840152151590820152606001610185565b6008546101fa906001600160a01b031681565b61017b60035481565b610306610ccc565b60408051938452602084019290925290820152606001610185565b6101a161032f36600461155f565b610d56565b60045461022c9060ff1681565b61037261034f366004611431565b5f6020819052908152604090208054600182015460029092015490919060ff1683565b604080519384526020840192909252151590820152606001610185565b6001546101fa906001600160a01b031681565b6102ba6103b036600461155f565b60096020525f9081526040902080546001909101546001600160a01b0391821691811690600160a01b900460ff1683565b61017b60075481565b6001546001600160a01b031633148061040d57506002546001600160a01b031633145b61045e5760405162461bcd60e51b815260206004820152601d60248201527f4e6f74206120726567697374657265642067616d6520706c617965722e00000060448201526064015b60405180910390fd5b6002600354146104b05760405162461bcd60e51b815260206004820181905260248201527f57616974696e6720666f7220616c6c20706c617965727320746f206a6f696e2e6044820152606401610455565b6001600160a01b0382165f9081526020819052604090206002015460ff1661051a5760405162461bcd60e51b815260206004820152601b60248201527f41747461636b657220756e6974206e6f74206465706c6f7965642e00000000006044820152606401610455565b6001600160a01b0381165f9081526020819052604090206002015460ff166105845760405162461bcd60e51b815260206004820152601b60248201527f446566656e64657220756e6974206e6f74206465706c6f7965642e00000000006044820152606401610455565b336001600160a01b03831614806105a35750336001600160a01b038216145b6106155760405162461bcd60e51b815260206004820152602a60248201527f4f6e6c7920696e766f6c76656420706c61796572732063616e20696e6974696160448201527f746520636f6d6261742e000000000000000000000000000000000000000000006064820152608401610455565b6001600160a01b038083165f9081526020819052604080822092841682529020815460018201546106469190610f2d565b6005556001810154825461065a9190610f2d565b6006558154815461066b9190610f64565b60075560055460085461068791906001600160a01b0316610f92565b506006546008546106a191906001600160a01b0316610f92565b506007546008546106bb91906001600160a01b0316610f92565b50826001600160a01b0316846001600160a01b03167f5a69a97e9013760a82fd32e6867c36254110b74e452c48e2a51616d8a160bbce60405160405180910390a350505050565b6001545f9081906001600160a01b031633148061072957506002546001600160a01b031633145b6107755760405162461bcd60e51b815260206004820152601d60248201527f4e6f74206120726567697374657265642067616d6520706c617965722e0000006044820152606401610455565b335f9081526020819052604090206002015460ff166107fc5760405162461bcd60e51b815260206004820152602e60248201527f596f752068617665206e6f20756e6974206465706c6f79656420746f2072657660448201527f65616c20737461747320666f722e0000000000000000000000000000000000006064820152608401610455565b5050335f90815260208190526040902080546001909101549091565b6008546001600160a01b0316331461088a5760405162461bcd60e51b815260206004820152602f60248201527f4f6e6c792074686520636f6e7472616374206f776e65722063616e2063616c6c60448201526e103a3434b990333ab731ba34b7b71760891b6064820152608401610455565b6004805482919060ff191660018360038111156108a9576108a961146f565b02179055507f361e8b31370306c1f19f1221ecf36284da056919bf6889bd31638c2b58fbd987816040516108dd9190611483565b60405180910390a150565b6001546001600160a01b031633148061090b57506002546001600160a01b031633145b6109575760405162461bcd60e51b815260206004820152601d60248201527f4e6f74206120726567697374657265642067616d6520706c617965722e0000006044820152606401610455565b335f9081526020819052604090206002015460ff16156109c35760405162461bcd60e51b815260206004820152602160248201527f596f7520616c72656164792068617665206120756e6974206465706c6f7965646044820152601760f91b6064820152608401610455565b600260035414610a155760405162461bcd60e51b815260206004820181905260248201527f57616974696e6720666f7220616c6c20706c617965727320746f206a6f696e2e6044820152606401610455565b5f610a558787878080601f0160208091040260200160405190810160405280939291908181526020018383808284375f92019190915250610fa492505050565b90505f610a978585858080601f0160208091040260200160405190810160405280939291908181526020018383808284375f92019190915250610fa492505050565b6040805160608101825284815260208082018481526001838501818152335f908152938490529490922092518355519082015590516002909101805460ff19169115159190911790559050610aeb82610fb1565b50610af68233610f92565b50610b0081610fb1565b50610b0b8133610f92565b5060405133907f6f4cdb6f0d595b9e7dd2e6a0bae256d25ce471acc408e85152030f2e38fef23d905f90a25050505050505050565b5f803342610b4f600143611576565b60405160609390931b6bffffffffffffffffffffffff19166020840152603483019190915240605482015260740160408051601f1981840301815291815281516020928301205f81815260099093529120549091506001600160a01b031615610bfa5760405162461bcd60e51b815260206004820152601360248201527f47616d6520616c726561647920657869737473000000000000000000000000006044820152606401610455565b60408051606081018252338082525f602080840182815284860183815287845260098352868420955186547fffffffffffffffffffffffff0000000000000000000000000000000000000000166001600160a01b0391821617875591516001909601805491519690921674ffffffffffffffffffffffffffffffffffffffffff1990911617600160a01b9515159590950294909417909355818152600a909252828220849055915183917fdb39b7323105b04a697f43db521ca7e936b02b98992c04ce3bbfa4a59d789ff691a3919050565b6008545f90819081906001600160a01b03163314610d445760405162461bcd60e51b815260206004820152602f60248201527f4f6e6c792074686520636f6e7472616374206f776e65722063616e2063616c6c60448201526e103a3434b990333ab731ba34b7b71760891b6064820152608401610455565b50506005546006546007549193909250565b5f818152600960205260409020546001600160a01b0316610db95760405162461bcd60e51b815260206004820152601360248201527f47616d6520646f6573206e6f74206578697374000000000000000000000000006044820152606401610455565b5f818152600960205260409020600101546001600160a01b031615610e205760405162461bcd60e51b815260206004820152601160248201527f47616d6520616c72656164792066756c6c0000000000000000000000000000006044820152606401610455565b5f81815260096020526040902054336001600160a01b0390911603610e925760405162461bcd60e51b815260206004820152602260248201527f43726561746f722063616e6e6f74206a6f696e207468656972206f776e2067616044820152616d6560f01b6064820152608401610455565b5f81815260096020908152604080832060010180547fffffffffffffffffffffff00ffffffffffffffffffffffffffffffffffffffff3390811674ffffffffffffffffffffffffffffffffffffffffff1990921691909117600160a01b17909155808452600a90925280832084905551909183917fdd5a0e5e0c7946c099f2ed766c0b633dd2eb1e1e10743bab89f871e8038b080b9190a350565b5f82610f3f57610f3c5f610fc0565b92505b81610f5057610f4d5f610fc0565b91505b610f5b83835f610fcf565b90505b92915050565b5f82610f7657610f735f610fc0565b92505b81610f8757610f845f610fc0565b91505b610f5b83835f6110ca565b5f610f9d838361117f565b5090919050565b5f610f5b83836002611208565b5f610fbc823061117f565b5090565b5f610f5e8260ff166002611328565b5f808215610fe25750600160f81b610fe5565b505f5b7fed8d60e34876f751cc8b014c560745351147d9de11b9347c854e881b128ea601546040516385362ee760e01b815260048101879052602481018690527fff00000000000000000000000000000000000000000000000000000000000000831660448201527fed8d60e34876f751cc8b014c560745351147d9de11b9347c854e881b128ea600916001600160a01b0316906385362ee7906064015b6020604051808303815f875af115801561109c573d5f803e3d5ffd5b505050506040513d601f19601f820116820180604052508101906110c09190611595565b9695505050505050565b5f8082156110dd5750600160f81b6110e0565b505f5b7fed8d60e34876f751cc8b014c560745351147d9de11b9347c854e881b128ea6015460405163f77f3f1d60e01b815260048101879052602481018690527fff00000000000000000000000000000000000000000000000000000000000000831660448201527fed8d60e34876f751cc8b014c560745351147d9de11b9347c854e881b128ea600916001600160a01b03169063f77f3f1d90606401611080565b5f7fed8d60e34876f751cc8b014c560745351147d9de11b9347c854e881b128ea6008054604051635ca4b5b160e11b8152600481018690526001600160a01b03858116602483015292935091169063b9496b62906044015f604051808303815f87803b1580156111ed575f80fd5b505af11580156111ff573d5f803e3d5ffd5b50505050505050565b7fed8d60e34876f751cc8b014c560745351147d9de11b9347c854e881b128ea6015460405163196d0b9b60e01b81525f917fed8d60e34876f751cc8b014c560745351147d9de11b9347c854e881b128ea600916001600160a01b039091169063196d0b9b906112819088903390899089906004016115c0565b6020604051808303815f875af115801561129d573d5f803e3d5ffd5b505050506040513d601f19601f820116820180604052508101906112c19190611595565b8154604051630f8e573b60e21b8152600481018390523360248201529193506001600160a01b031690633e395cec906044015f604051808303815f87803b15801561130a575f80fd5b505af115801561131c573d5f803e3d5ffd5b50505050509392505050565b7fed8d60e34876f751cc8b014c560745351147d9de11b9347c854e881b128ea60154604051639cd07acb60e01b81525f917fed8d60e34876f751cc8b014c560745351147d9de11b9347c854e881b128ea600916001600160a01b0390911690639cd07acb9061139d9087908790600401611632565b6020604051808303815f875af11580156113b9573d5f803e3d5ffd5b505050506040513d601f19601f820116820180604052508101906113dd9190611595565b949350505050565b80356001600160a01b03811681146113fb575f80fd5b919050565b5f8060408385031215611411575f80fd5b61141a836113e5565b9150611428602084016113e5565b90509250929050565b5f60208284031215611441575f80fd5b610f5b826113e5565b5f6020828403121561145a575f80fd5b813560048110611468575f80fd5b9392505050565b634e487b7160e01b5f52602160045260245ffd5b60208101600483106114975761149761146f565b91905290565b5f8083601f8401126114ad575f80fd5b50813567ffffffffffffffff8111156114c4575f80fd5b6020830191508360208285010111156114db575f80fd5b9250929050565b5f805f805f80608087890312156114f7575f80fd5b86359550602087013567ffffffffffffffff80821115611515575f80fd5b6115218a838b0161149d565b9097509550604089013594506060890135915080821115611540575f80fd5b5061154d89828a0161149d565b979a9699509497509295939492505050565b5f6020828403121561156f575f80fd5b5035919050565b81810381811115610f5e57634e487b7160e01b5f52601160045260245ffd5b5f602082840312156115a5575f80fd5b5051919050565b605481106115bc576115bc61146f565b9052565b8481525f60206001600160a01b03861660208401526080604084015284518060808501525f5b818110156116025786810183015185820160a0015282016115e6565b505f60a0828601015260a0601f19601f8301168501019250505061162960608301846115ac565b95945050505050565b8281526040810161146860208301846115ac56fea164736f6c6343000818000a",
  "linkReferences": {},
  "deployedLinkReferences": {}
}